:100000000C942A000C943C000C943C000C943C0092
:100010000C94DF020C943C000C943C000C946D0298
:100020000C943C000C943C000C941E020C943C007C
:100030000C943C000C9449030C943C000C943C0040
:100040000C943C000C943C000C943C000C943C0040
:100050000C943C0011241FBECFE5D8E0DEBFCDBF1D
:1000600020E0A0E6B0E001C01D92A038B207E1F7A1
:100070000E943E000C9498030C9400000E947300B0
:100080000E94D700D0E0C0E00E94DA00813021F465
:100090000E94DA00C82F07C00E94DA00823019F4EB
:1000A0000E94DA00D82FC33828F4D33818F40E94FD
:1000B0009000EACFC23838F0D33828F468E286E4FA
:1000C0000E94A700E1CFC33838F4D23828F066E4A4
:1000D00088E20E94A700D8CFC238B0F2D238A0F28E
:1000E0000E94C000D1CF61E08AE20E94DD0061E0A1
:1000F0008BE20E94DD0061E08CE20E94DD0061E0A5
:100100008DE20E94DD000E9405020E94C6020E944C
:10011000FB010E94BC0261E08EE10E94DD000895B7
:100120008BE40E9415028BE40E94D60261E08AE211
:100130000E946C0160E08BE20E946C0161E08CE245
:100140000E946C0160E08DE20E946C010895CF93E3
:10015000C62F0E9415028C2F0E94D60261E08AE20F
:100160000E946C0160E08BE20E946C0161E08CE215
:100170000E946C0160E08DE20E946C01CF910895B5
:100180008BE40E9415028BE40E94D60260E08AE2B2
:100190000E946C0161E08BE20E946C0160E08CE2E5
:1001A0000E946C0161E08DE20E946C0108950E9442
:1001B0002E0308950E94450308959DEC899F912D7B
:1001C0001124292F269526952695220F322F330F9D
:1001D000330F230F821B282F892F869586958695AE
:1001E0006623D9F18230A9F018F4813031F00895F6
:1001F0008330D9F0843029F108953AB381E090E05A
:1002000002C0880F991F2A95E2F7832B8ABB8ABB0D
:10021000089537B381E090E002C0880F991F2A95B6
:10022000E2F7832B87BB87BB089534B381E090E06E
:1002300002C0880F991F2A95E2F7832B84BB84BBE9
:10024000089531B381E090E002C0880F991F2A958C
:10025000E2F7832B81BB81BB08958230B1F018F4A3
:10026000813031F008958330E9F0843041F1089510
:100270003AB381E090E002C0880F991F2A95E2F717
:10028000809583238ABB8ABB089537B381E090E0D1
:1002900002C0880F991F2A95E2F78095832387BBB8
:1002A00087BB089534B381E090E002C0880F991FA6
:1002B0002A95E2F78095832384BB84BB089531B3EC
:1002C00081E090E002C0880F991F2A95E2F780959F
:1002D000832381BB81BB08959DEC899F912D1124BF
:1002E000292F269526952695220F322F330F330F6F
:1002F000230F821B282F892F869586958695662346
:10030000D9F18230A9F018F4813031F008958330AA
:10031000D9F0843029F108953BB381E090E002C028
:10032000880F991F2A95E2F7832B8BBB8BBB08950F
:1003300038B381E090E002C0880F991F2A95E2F758
:10034000832B88BB88BB089535B381E090E002C061
:10035000880F991F2A95E2F7832B85BB85BB0895EB
:1003600032B381E090E002C0880F991F2A95E2F72E
:10037000832B82BB82BB08958230B1F018F48130A8
:1003800031F008958330E9F0843041F108953BB3B2
:1003900081E090E002C0880F991F2A95E2F78095CE
:1003A00083238BBB8BBB089538B381E090E002C000
:1003B000880F991F2A95E2F78095832388BB88BB15
:1003C000089535B381E090E002C0880F991F2A9507
:1003D000E2F78095832385BB85BB089532B381E026
:1003E00090E002C0880F991F2A95E2F78095832339
:1003F00082BB82BB089583B7816083BF83B78D7F43
:1004000083BF83B78B7F83BF089587B3886087BB23
:1004100083B7806483BF83B7886083BF83B78062FC
:1004200083BF83B78F7E83BF0895982F80E064E6F3
:1004300070E00E94700361506CBF08951F920F928C
:100440000FB60F9211242F933F934F935F936F93A7
:100450007F938F939F93AF93BF93EF93FF9380917D
:10046000600090916100A0916200B09163000196DC
:10047000A11DB11D8093600090936100A093620064
:10048000B0936300409164005091650060916600F4
:100490007091670084179507A607B70769F4E09184
:1004A0006800F09169000995109260001092610057
:1004B0001092620010926300FF91EF91BF91AF9193
:1004C0009F918F917F916F915F914F913F912F916C
:1004D0000F900FBE0F901F9018951F920F920FB69E
:1004E0000F9211242F933F934F935F936F937F93BA
:1004F0008F939F93AF93BF93EF93FF9380916A0085
:1005000090916B00A0916C00B0916D000196A11DBF
:10051000B11D80936A0090936B00A0936C00B09320
:100520006D0040916E0050916F006091700070916D
:10053000710084179507A607B70769F4E091720068
:10054000F0917300099510926A0010926B0010925E
:100550006C0010926D00FF91EF91BF91AF919F9150
:100560008F917F916F915F914F913F912F910F905C
:100570000FBE0F901F90189585B5816085BD85B51C
:100580008D7F85BD85B58B7F85BD089581B38068DE
:1005900081BB85B5806485BD85B5886085BD85B521
:1005A000806285BD85B58F7E85BD0895982F80E0DA
:1005B00064E670E00E947003615063BD08951F926D
:1005C0000F920FB60F9211242F933F934F935F9387
:1005D0006F937F938F939F93AF93BF93EF93FF930B
:1005E0008091740090917500A0917600B091770091
:1005F0000196A11DB11D8093740090937500A09386
:100600007600B09377004091780050917900609126
:100610007A0070917B0084179507A607B70769F4E5
:10062000E0917C00F0917D00099510927400109289
:1006300075001092760010927700FF91EF91BF91B4
:10064000AF919F918F917F916F915F914F913F916A
:100650002F910F900FBE0F901F90189581B38E7F32
:1006600081BB81B3826081BB8FB780688FBF8AB145
:100670008B7F8AB983E389B986E880BD8AB18061BE
:100680008AB98AB188608AB908955F9BFECF8CB120
:1006900008951F920F920FB60F9211242F933F933C
:1006A0004F935F936F937F938F939F93AF93BF937A
:1006B000EF93FF93E0917E00F0917F000995FF9109
:1006C000EF91BF91AF919F918F917F916F915F91CA
:1006D0004F913F912F910F900FBE0F901F90189543
:1006E00097FB072E16F4009407D077FD09D00E94DF
:1006F000840307FC05D03EF4909581959F4F0895A3
:10070000709561957F4F0895AA1BBB1B51E107C0EF
:10071000AA1FBB1FA617B70710F0A61BB70B881F91
:10072000991F5A95A9F780959095BC01CD01089520
:04073000F894FFCF6B
:00000001FF
